{
  "_format": "hh-sol-artifact-1",
  "contractName": "MNEECommerce",
  "sourceName": "contracts/MNEECommerce.sol",
  "abi": [
    {
      "inputs": [
        {
          "internalType": "address",
          "name": "_mnee",
          "type": "address"
        }
      ],
      "stateMutability": "nonpayable",
      "type": "constructor"
    },
    {
      "anonymous": false,
      "inputs": [
        {
          "indexed": false,
          "internalType": "uint256",
          "name": "orderId",
          "type": "uint256"
        },
        {
          "indexed": false,
          "internalType": "address",
          "name": "buyer",
          "type": "address"
        },
        {
          "indexed": false,
          "internalType": "uint256",
          "name": "amount",
          "type": "uint256"
        }
      ],
      "name": "OrderPlaced",
      "type": "event"
    },
    {
      "anonymous": false,
      "inputs": [
        {
          "indexed": false,
          "internalType": "uint256",
          "name": "orderId",
          "type": "uint256"
        }
      ],
      "name": "OrderRefunded",
      "type": "event"
    },
    {
      "inputs": [],
      "name": "REFUND_WINDOW",
      "outputs": [
        {
          "internalType": "uint256",
          "name": "",
          "type": "uint256"
        }
      ],
      "stateMutability": "view",
      "type": "function"
    },
    {
      "inputs": [
        {
          "internalType": "uint256",
          "name": "amount",
          "type": "uint256"
        }
      ],
      "name": "buy",
      "outputs": [],
      "stateMutability": "nonpayable",
      "type": "function"
    },
    {
      "inputs": [],
      "name": "mnee",
      "outputs": [
        {
          "internalType": "contract IERC20",
          "name": "",
          "type": "address"
        }
      ],
      "stateMutability": "view",
      "type": "function"
    },
    {
      "inputs": [],
      "name": "orderCount",
      "outputs": [
        {
          "internalType": "uint256",
          "name": "",
          "type": "uint256"
        }
      ],
      "stateMutability": "view",
      "type": "function"
    },
    {
      "inputs": [
        {
          "internalType": "uint256",
          "name": "",
          "type": "uint256"
        }
      ],
      "name": "orders",
      "outputs": [
        {
          "internalType": "address",
          "name": "buyer",
          "type": "address"
        },
        {
          "internalType": "uint256",
          "name": "amount",
          "type": "uint256"
        },
        {
          "internalType": "uint256",
          "name": "timestamp",
          "type": "uint256"
        },
        {
          "internalType": "bool",
          "name": "refunded",
          "type": "bool"
        }
      ],
      "stateMutability": "view",
      "type": "function"
    },
    {
      "inputs": [],
      "name": "owner",
      "outputs": [
        {
          "internalType": "address",
          "name": "",
          "type": "address"
        }
      ],
      "stateMutability": "view",
      "type": "function"
    },
    {
      "inputs": [
        {
          "internalType": "uint256",
          "name": "orderId",
          "type": "uint256"
        }
      ],
      "name": "refund",
      "outputs": [],
      "stateMutability": "nonpayable",
      "type": "function"
    }
  ],
  "bytecode": "0x608060405234801561001057600080fd5b50604051610cf2380380610cf28339818101604052810190610032919061011c565b806000806101000a81548173ffffffffffffffffffffffffffffffffffffffff021916908373ffffffffffffffffffffffffffffffffffffffff16021790555033600160006101000a81548173ffffffffffffffffffffffffffffffffffffffff021916908373ffffffffffffffffffffffffffffffffffffffff16021790555050610149565b600080fd5b600073ffffffffffffffffffffffffffffffffffffffff82169050919050565b60006100e9826100be565b9050919050565b6100f9816100de565b811461010457600080fd5b50565b600081519050610116816100f0565b92915050565b600060208284031215610132576101316100b9565b5b600061014084828501610107565b91505092915050565b610b9a806101586000396000f3fe608060405234801561001057600080fd5b506004361061007d5760003560e01c806379b34cce1161005b57806379b34cce146100da5780638da5cb5b146100f8578063a85c38ef14610116578063d96a094a146101495761007d565b80631153b5f3146100825780632453ffa8146100a0578063278ecde1146100be575b600080fd5b61008a610165565b604051610097919061068d565b60405180910390f35b6100a861016c565b6040516100b5919061068d565b60405180910390f35b6100d860048036038101906100d391906106d9565b610172565b005b6100e26103ca565b6040516100ef9190610785565b60405180910390f35b6101006103ee565b60405161010d91906107c1565b60405180910390f35b610130600480360381019061012b91906106d9565b610414565b60405161014094939291906107f7565b60405180910390f35b610163600480360381019061015e91906106d9565b610471565b005b62093a8081565b60035481565b60006002600083815260200190815260200160002090503373ffffffffffffffffffffffffffffffffffffffff168160000160009054906101000a900473ffffffffffffffffffffffffffffffffffffffff1673ffffffffffffffffffffffffffffffffffffffff161461021b576040517f08c379a000000000000000000000000000000000000000000000000000000000815260040161021290610899565b60405180910390fd5b8060030160009054906101000a900460ff161561026d576040517f08c379a000000000000000000000000000000000000000000000000000000000815260040161026490610905565b60405180910390fd5b60018160030160006101000a81548160ff02191690831515021790555060008054906101000a900473ffffffffffffffffffffffffffffffffffffffff1673ffffffffffffffffffffffffffffffffffffffff1663a9059cbb8260000160009054906101000a900473ffffffffffffffffffffffffffffffffffffffff1683600101546040518363ffffffff1660e01b815260040161030d929190610925565b6020604051808303816000875af115801561032c573d6000803e3d6000fd5b505050506040513d601f19601f82011682018060405250810190610350919061097a565b61038f576040517f08c379a0000000000000000000000000000000000000000000000000000000008152600401610386906109f3565b60405180910390fd5b7f303a31648d19f17852cf82657162c4bdd4a06ab3f36f1e7ae1118f4ca6473e11826040516103be919061068d565b60405180910390a15050565b60008054906101000a900473ffffffffffffffffffffffffffffffffffffffff1681565b600160009054906101000a900473ffffffffffffffffffffffffffffffffffffffff1681565b60026020528060005260406000206000915090508060000160009054906101000a900473ffffffffffffffffffffffffffffffffffffffff16908060010154908060020154908060030160009054906101000a900460ff16905084565b600081116104b4576040517f08c379a00000000000000000000000000000000000000000000000000000000081526004016104ab90610a5f565b60405180910390fd5b60008054906101000a900473ffffffffffffffffffffffffffffffffffffffff1673ffffffffffffffffffffffffffffffffffffffff166323b872dd3330846040518463ffffffff1660e01b815260040161051193929190610a7f565b6020604051808303816000875af1158015610530573d6000803e3d6000fd5b505050506040513d601f19601f82011682018060405250810190610554919061097a565b5060405180608001604052803373ffffffffffffffffffffffffffffffffffffffff16815260200182815260200142815260200160001515815250600260006003600081546105a290610ae5565b919050819055815260200190815260200160002060008201518160000160006101000a81548173ffffffffffffffffffffffffffffffffffffffff021916908373ffffffffffffffffffffffffffffffffffffffff160217905550602082015181600101556040820151816002015560608201518160030160006101000a81548160ff0219169083151502179055509050507f291c9d431146e4de667c04a6a738ed159e6dae2aaa909d85ca8ff7416719a609600354338360405161066993929190610b2d565b60405180910390a150565b6000819050919050565b61068781610674565b82525050565b60006020820190506106a2600083018461067e565b92915050565b600080fd5b6106b681610674565b81146106c157600080fd5b50565b6000813590506106d3816106ad565b92915050565b6000602082840312156106ef576106ee6106a8565b5b60006106fd848285016106c4565b91505092915050565b600073ffffffffffffffffffffffffffffffffffffffff82169050919050565b6000819050919050565b600061074b61074661074184610706565b610726565b610706565b9050919050565b600061075d82610730565b9050919050565b600061076f82610752565b9050919050565b61077f81610764565b82525050565b600060208201905061079a6000830184610776565b92915050565b60006107ab82610706565b9050919050565b6107bb816107a0565b82525050565b60006020820190506107d660008301846107b2565b92915050565b60008115159050919050565b6107f1816107dc565b82525050565b600060808201905061080c60008301876107b2565b610819602083018661067e565b610826604083018561067e565b61083360608301846107e8565b95945050505050565b600082825260208201905092915050565b7f4e6f7420796f7572206f72646572000000000000000000000000000000000000600082015250565b6000610883600e8361083c565b915061088e8261084d565b602082019050919050565b600060208201905081810360008301526108b281610876565b9050919050565b7f416c726561647920726566756e64656400000000000000000000000000000000600082015250565b60006108ef60108361083c565b91506108fa826108b9565b602082019050919050565b6000602082019050818103600083015261091e816108e2565b9050919050565b600060408201905061093a60008301856107b2565b610947602083018461067e565b9392505050565b610957816107dc565b811461096257600080fd5b50565b6000815190506109748161094e565b92915050565b6000602082840312156109905761098f6106a8565b5b600061099e84828501610965565b91505092915050565b7f526566756e64206661696c656400000000000000000000000000000000000000600082015250565b60006109dd600d8361083c565b91506109e8826109a7565b602082019050919050565b60006020820190508181036000830152610a0c816109d0565b9050919050565b7f496e76616c696420616d6f756e74000000000000000000000000000000000000600082015250565b6000610a49600e8361083c565b9150610a5482610a13565b602082019050919050565b60006020820190508181036000830152610a7881610a3c565b9050919050565b6000606082019050610a9460008301866107b2565b610aa160208301856107b2565b610aae604083018461067e565b949350505050565b7f4e487b7100000000000000000000000000000000000000000000000000000000600052601160045260246000fd5b6000610af082610674565b91507fffffffffffffffffffffffffffffffffffffffffffffffffffffffffffffffff8203610b2257610b21610ab6565b5b600182019050919050565b6000606082019050610b42600083018661067e565b610b4f60208301856107b2565b610b5c604083018461067e565b94935050505056fea2646970667358221220d1023da106b41f8831025e1383cc77c7606aa8d8e131b6917d8b659473276a4464736f6c63430008180033",
  "linkReferences": {},
  "deployedLinkReferences": {}
}